{
  "contractName": "FarmerContract",
  "abi": [
    {
      "constant": false,
      "inputs": [
        {
          "name": "_id",
          "type": "uint256"
        }
      ],
      "name": "setUserArguments",
      "outputs": [],
      "payable": false,
      "stateMutability": "nonpayable",
      "type": "function",
      "signature": "0x07baf518"
    },
    {
      "constant": true,
      "inputs": [],
      "name": "activity",
      "outputs": [
        {
          "name": "",
          "type": "string"
        }
      ],
      "payable": false,
      "stateMutability": "view",
      "type": "function",
      "signature": "0x5d9c7a16"
    },
    {
      "constant": true,
      "inputs": [
        {
          "name": "",
          "type": "uint256"
        }
      ],
      "name": "products",
      "outputs": [
        {
          "name": "",
          "type": "address"
        }
      ],
      "payable": false,
      "stateMutability": "view",
      "type": "function",
      "signature": "0x7acc0b20"
    },
    {
      "constant": true,
      "inputs": [
        {
          "name": "currentOwner",
          "type": "uint256"
        },
        {
          "name": "newOwner",
          "type": "uint256"
        }
      ],
      "name": "isTokenTransferOK",
      "outputs": [
        {
          "name": "ok",
          "type": "bool"
        }
      ],
      "payable": false,
      "stateMutability": "view",
      "type": "function",
      "signature": "0xa48ba6a3"
    },
    {
      "constant": true,
      "inputs": [],
      "name": "id",
      "outputs": [
        {
          "name": "",
          "type": "uint256"
        }
      ],
      "payable": false,
      "stateMutability": "view",
      "type": "function",
      "signature": "0xaf640d0f"
    },
    {
      "constant": false,
      "inputs": [
        {
          "name": "_a",
          "type": "uint256"
        }
      ],
      "name": "getProduct",
      "outputs": [
        {
          "name": "",
          "type": "address"
        }
      ],
      "payable": false,
      "stateMutability": "nonpayable",
      "type": "function",
      "signature": "0xb9db15b4"
    },
    {
      "constant": false,
      "inputs": [
        {
          "name": "_a",
          "type": "uint256"
        },
        {
          "name": "_p",
          "type": "address"
        }
      ],
      "name": "setProduct",
      "outputs": [],
      "payable": false,
      "stateMutability": "nonpayable",
      "type": "function",
      "signature": "0xc93046ec"
    },
    {
      "constant": false,
      "inputs": [
        {
          "name": "_a",
          "type": "uint256"
        }
      ],
      "name": "setShipped",
      "outputs": [],
      "payable": false,
      "stateMutability": "nonpayable",
      "type": "function",
      "signature": "0xe5452fc4"
    },
    {
      "inputs": [],
      "payable": false,
      "stateMutability": "nonpayable",
      "type": "constructor",
      "signature": "constructor"
    },
    {
      "constant": false,
      "inputs": [
        {
          "name": "_id",
          "type": "uint256"
        },
        {
          "name": "_activity",
          "type": "string"
        }
      ],
      "name": "setFarmerArguments",
      "outputs": [],
      "payable": false,
      "stateMutability": "nonpayable",
      "type": "function",
      "signature": "0xf91535f4"
    }
  ],
  "bytecode": "0x608060405234801561001057600080fd5b5061077c806100206000396000f3fe608060405260043610610099576000357c0100000000000000000000000000000000000000000000000000000000900463ffffffff16806307baf5181461009e5780635d9c7a16146100d95780637acc0b2014610169578063a48ba6a3146101e4578063af640d0f14610241578063b9db15b41461026c578063c93046ec146102e7578063e5452fc414610342578063f91535f41461037d575b600080fd5b3480156100aa57600080fd5b506100d7600480360360208110156100c157600080fd5b810190808035906020019092919050505061044f565b005b3480156100e557600080fd5b506100ee610459565b6040518080602001828103825283818151815260200191508051906020019080838360005b8381101561012e578082015181840152602081019050610113565b50505050905090810190601f16801561015b5780820380516001836020036101000a031916815260200191505b509250505060405180910390f35b34801561017557600080fd5b506101a26004803603602081101561018c57600080fd5b81019080803590602001909291905050506104f7565b604051808273ffffffffffffffffffffffffffffffffffffffff1673ffffffffffffffffffffffffffffffffffffffff16815260200191505060405180910390f35b3480156101f057600080fd5b506102276004803603604081101561020757600080fd5b81019080803590602001909291908035906020019092919050505061052a565b604051808215151515815260200191505060405180910390f35b34801561024d57600080fd5b5061025661053c565b6040518082815260200191505060405180910390f35b34801561027857600080fd5b506102a56004803603602081101561028f57600080fd5b8101908080359060200190929190505050610542565b604051808273ffffffffffffffffffffffffffffffffffffffff1673ffffffffffffffffffffffffffffffffffffffff16815260200191505060405180910390f35b3480156102f357600080fd5b506103406004803603604081101561030a57600080fd5b8101908080359060200190929190803573ffffffffffffffffffffffffffffffffffffffff16906020019092919050505061057f565b005b34801561034e57600080fd5b5061037b6004803603602081101561036557600080fd5b81019080803590602001909291905050506105d5565b005b34801561038957600080fd5b5061044d600480360360408110156103a057600080fd5b8101908080359060200190929190803590602001906401000000008111156103c757600080fd5b8201836020820111156103d957600080fd5b803590602001918460018302840111640100000000831117156103fb57600080fd5b91908080601f016020809104026020016040519081016040528093929190818152602001838380828437600081840152601f19601f820116905080830192505050505050509192919290505050610687565b005b8060008190555050565b60028054600181600116156101000203166002900480601f0160208091040260200160405190810160405280929190818152602001828054600181600116156101000203166002900480156104ef5780601f106104c4576101008083540402835291602001916104ef565b820191906000526020600020905b8154815290600101906020018083116104d257829003601f168201915b505050505081565b60016020528060005260406000206000915054906101000a900473ffffffffffffffffffffffffffffffffffffffff1681565b60008083905080831491505092915050565b60005481565b60006001600083815260200190815260200160002060009054906101000a900473ffffffffffffffffffffffffffffffffffffffff169050919050565b806001600084815260200190815260200160002060006101000a81548173ffffffffffffffffffffffffffffffffffffffff021916908373ffffffffffffffffffffffffffffffffffffffff1602179055505050565b6001600082815260200190815260200160002060009054906101000a900473ffffffffffffffffffffffffffffffffffffffff1673ffffffffffffffffffffffffffffffffffffffff1663571f13e46040518163ffffffff167c0100000000000000000000000000000000000000000000000000000000028152600401600060405180830381600087803b15801561066c57600080fd5b505af1158015610680573d6000803e3d6000fd5b5050505050565b806002908051906020019061069d9291906106ab565b506106a78261044f565b5050565b828054600181600116156101000203166002900490600052602060002090601f016020900481019282601f106106ec57805160ff191683800117855561071a565b8280016001018555821561071a579182015b828111156107195782518255916020019190600101906106fe565b5b509050610727919061072b565b5090565b61074d91905b80821115610749576000816000905550600101610731565b5090565b9056fea165627a7a7230582003ea8a1ceca658b1927566e408d6f5062f36e1e7df17edd4e32f411d60c2f35d0029",
  "source": "pragma solidity >=0.4.25 <0.6.0;\n\nimport \"./UserContract.sol\";\nimport \"./Product.sol\";\n\ncontract FarmerContract is UserContract {\n    string public activity;\n\n    constructor () public {\n\n    }\n\n    function setFarmerArguments (uint _id,string memory _activity) public {\n        activity = _activity;\n        setUserArguments (_id);\n    }\n}",
  "sourcePath": "/home/ahmed/Desktop/ethereuem_projects/project_final/backend_truffle/contracts/FarmerContract.sol",
  "compiler": {
    "name": "solc",
    "version": "0.5.0+commit.1d4f565a.Emscripten.clang"
  },
  "schemaVersion": "3.0.2",
  "updatedAt": "2019-03-04T11:01:00.717Z",
  "devdoc": {
    "methods": {}
  },
  "userdoc": {
    "methods": {}
  }
}