{
  "contractName": "Food",
  "abi": [
    {
      "inputs": [],
      "payable": false,
      "stateMutability": "nonpayable",
      "type": "constructor",
      "signature": "constructor"
    },
    {
      "anonymous": false,
      "inputs": [
        {
          "indexed": true,
          "name": "_productId",
          "type": "uint256"
        }
      ],
      "name": "shipEvent",
      "type": "event",
      "signature": "0xec170b04e220cce231576ef20a51ea57e8aa3a8772b7031a81f3ecd7f6e637ad"
    },
    {
      "constant": false,
      "inputs": [
        {
          "name": "_activity",
          "type": "string"
        },
        {
          "name": "_username",
          "type": "string"
        },
        {
          "name": "_location",
          "type": "string"
        }
      ],
      "name": "addFarmer",
      "outputs": [
        {
          "name": "",
          "type": "uint256"
        }
      ],
      "payable": false,
      "stateMutability": "nonpayable",
      "type": "function",
      "signature": "0x76fe840c"
    },
    {
      "constant": false,
      "inputs": [
        {
          "name": "_activity",
          "type": "string"
        },
        {
          "name": "_company",
          "type": "string"
        },
        {
          "name": "_location",
          "type": "string"
        }
      ],
      "name": "addSupplier",
      "outputs": [
        {
          "name": "",
          "type": "uint256"
        }
      ],
      "payable": false,
      "stateMutability": "nonpayable",
      "type": "function",
      "signature": "0x46f04195"
    },
    {
      "constant": false,
      "inputs": [
        {
          "name": "_activity",
          "type": "string"
        },
        {
          "name": "_company",
          "type": "string"
        },
        {
          "name": "_location",
          "type": "string"
        }
      ],
      "name": "addRetailer",
      "outputs": [
        {
          "name": "",
          "type": "uint256"
        }
      ],
      "payable": false,
      "stateMutability": "nonpayable",
      "type": "function",
      "signature": "0xdb879296"
    },
    {
      "constant": false,
      "inputs": [
        {
          "name": "_pType",
          "type": "string"
        },
        {
          "name": "_name",
          "type": "string"
        },
        {
          "name": "_harDate",
          "type": "uint256"
        },
        {
          "name": "_shipAddr",
          "type": "string"
        },
        {
          "name": "_quantity",
          "type": "uint256"
        },
        {
          "name": "_owner",
          "type": "uint256"
        }
      ],
      "name": "addProduct",
      "outputs": [
        {
          "name": "",
          "type": "uint256"
        }
      ],
      "payable": false,
      "stateMutability": "nonpayable",
      "type": "function",
      "signature": "0x80bfb991"
    },
    {
      "constant": false,
      "inputs": [
        {
          "name": "_productId",
          "type": "uint256"
        },
        {
          "name": "_owner",
          "type": "uint256"
        },
        {
          "name": "_addrReceiver",
          "type": "uint256"
        },
        {
          "name": "_shipDate",
          "type": "uint256"
        },
        {
          "name": "_receiver",
          "type": "uint256"
        },
        {
          "name": "_addr",
          "type": "string"
        }
      ],
      "name": "ship",
      "outputs": [],
      "payable": false,
      "stateMutability": "nonpayable",
      "type": "function",
      "signature": "0x8e22b144"
    },
    {
      "constant": true,
      "inputs": [
        {
          "name": "_productId",
          "type": "uint256"
        }
      ],
      "name": "getProductHistory",
      "outputs": [
        {
          "name": "",
          "type": "uint256"
        },
        {
          "name": "",
          "type": "uint256"
        },
        {
          "name": "",
          "type": "uint256"
        },
        {
          "name": "",
          "type": "string"
        },
        {
          "name": "",
          "type": "string"
        },
        {
          "name": "",
          "type": "string"
        },
        {
          "name": "",
          "type": "uint256"
        },
        {
          "name": "",
          "type": "uint256"
        },
        {
          "name": "",
          "type": "uint256"
        }
      ],
      "payable": false,
      "stateMutability": "view",
      "type": "function",
      "signature": "0x57a096a1"
    },
    {
      "constant": true,
      "inputs": [
        {
          "name": "_productId",
          "type": "uint256"
        }
      ],
      "name": "getProductCurrentState",
      "outputs": [
        {
          "name": "",
          "type": "uint256"
        },
        {
          "name": "",
          "type": "string"
        },
        {
          "name": "",
          "type": "string"
        },
        {
          "name": "",
          "type": "uint256"
        },
        {
          "name": "",
          "type": "uint256"
        },
        {
          "name": "",
          "type": "string"
        },
        {
          "name": "",
          "type": "uint256"
        },
        {
          "name": "",
          "type": "uint256"
        },
        {
          "name": "",
          "type": "uint256"
        },
        {
          "name": "",
          "type": "uint256"
        },
        {
          "name": "",
          "type": "bool"
        }
      ],
      "payable": false,
      "stateMutability": "view",
      "type": "function",
      "signature": "0x6fd9d328"
    },
    {
      "constant": true,
      "inputs": [],
      "name": "getProducsNbr",
      "outputs": [
        {
          "name": "",
          "type": "uint256"
        }
      ],
      "payable": false,
      "stateMutability": "view",
      "type": "function",
      "signature": "0x4b3da818"
    },
    {
      "constant": true,
      "inputs": [
        {
          "name": "_type",
          "type": "uint256"
        }
      ],
      "name": "getCompaniesNbr",
      "outputs": [
        {
          "name": "",
          "type": "uint256"
        }
      ],
      "payable": false,
      "stateMutability": "view",
      "type": "function",
      "signature": "0xcd2797c0"
    },
    {
      "constant": true,
      "inputs": [
        {
          "name": "_idF",
          "type": "uint256"
        },
        {
          "name": "_type",
          "type": "uint256"
        }
      ],
      "name": "getCompanyById",
      "outputs": [
        {
          "name": "",
          "type": "uint256"
        },
        {
          "name": "",
          "type": "string"
        },
        {
          "name": "",
          "type": "string"
        },
        {
          "name": "",
          "type": "string"
        }
      ],
      "payable": false,
      "stateMutability": "view",
      "type": "function",
      "signature": "0x3d14e4f1"
    }
  ],
  "bytecode": "0x608060405234801561001057600080fd5b50615fc7806100206000396000f3fe6080604052600436106100a4576000357c0100000000000000000000000000000000000000000000000000000000900463ffffffff1680633d14e4f1146100a957806346f04195146102465780634b3da8181461045057806357a096a11461047b5780636fd9d3281461063157806376fe840c146107f957806380bfb99114610a035780638e22b14414610c2b578063cd2797c014610d25578063db87929614610d74575b600080fd5b3480156100b557600080fd5b506100ec600480360360408110156100cc57600080fd5b810190808035906020019092919080359060200190929190505050610f7e565b60405180858152602001806020018060200180602001848103845287818151815260200191508051906020019080838360005b8381101561013a57808201518184015260208101905061011f565b50505050905090810190601f1680156101675780820380516001836020036101000a031916815260200191505b50848103835286818151815260200191508051906020019080838360005b838110156101a0578082015181840152602081019050610185565b50505050905090810190601f1680156101cd5780820380516001836020036101000a031916815260200191505b50848103825285818151815260200191508051906020019080838360005b838110156102065780820151818401526020810190506101eb565b50505050905090810190601f1680156102335780820380516001836020036101000a031916815260200191505b5097505050505050505060405180910390f35b34801561025257600080fd5b5061043a6004803603606081101561026957600080fd5b810190808035906020019064010000000081111561028657600080fd5b82018360208201111561029857600080fd5b803590602001918460018302840111640100000000831117156102ba57600080fd5b91908080601f016020809104026020016040519081016040528093929190818152602001838380828437600081840152601f19601f8201169050808301925050505050505091929192908035906020019064010000000081111561031d57600080fd5b82018360208201111561032f57600080fd5b8035906020019184600183028401116401000000008311171561035157600080fd5b91908080601f016020809104026020016040519081016040528093929190818152602001838380828437600081840152601f19601f820116905080830192505050505050509192919290803590602001906401000000008111156103b457600080fd5b8201836020820111156103c657600080fd5b803590602001918460018302840111640100000000831117156103e857600080fd5b91908080601f016020809104026020016040519081016040528093929190818152602001838380828437600081840152601f19601f8201169050808301925050505050505091929192905050506116f0565b6040518082815260200191505060405180910390f35b34801561045c57600080fd5b506104656117f7565b6040518082815260200191505060405180910390f35b34801561048757600080fd5b506104b46004803603602081101561049e57600080fd5b8101908080359060200190929190505050611804565b604051808a815260200189815260200188815260200180602001806020018060200187815260200186815260200185815260200184810384528a818151815260200191508051906020019080838360005b83811015610520578082015181840152602081019050610505565b50505050905090810190601f16801561054d5780820380516001836020036101000a031916815260200191505b50848103835289818151815260200191508051906020019080838360005b8381101561058657808201518184015260208101905061056b565b50505050905090810190601f1680156105b35780820380516001836020036101000a031916815260200191505b50848103825288818151815260200191508051906020019080838360005b838110156105ec5780820151818401526020810190506105d1565b50505050905090810190601f1680156106195780820380516001836020036101000a031916815260200191505b509c5050505050505050505050505060405180910390f35b34801561063d57600080fd5b5061066a6004803603602081101561065457600080fd5b8101908080359060200190929190505050612611565b604051808c815260200180602001806020018b81526020018a8152602001806020018981526020018881526020018781526020018681526020018515151515815260200184810384528e818151815260200191508051906020019080838360005b838110156106e65780820151818401526020810190506106cb565b50505050905090810190601f1680156107135780820380516001836020036101000a031916815260200191505b5084810383528d818151815260200191508051906020019080838360005b8381101561074c578082015181840152602081019050610731565b50505050905090810190601f1680156107795780820380516001836020036101000a031916815260200191505b5084810382528a818151815260200191508051906020019080838360005b838110156107b2578082015181840152602081019050610797565b50505050905090810190601f1680156107df5780820380516001836020036101000a031916815260200191505b509e50505050505050505050505050505060405180910390f35b34801561080557600080fd5b506109ed6004803603606081101561081c57600080fd5b810190808035906020019064010000000081111561083957600080fd5b82018360208201111561084b57600080fd5b8035906020019184600183028401116401000000008311171561086d57600080fd5b91908080601f016020809104026020016040519081016040528093929190818152602001838380828437600081840152601f19601f820116905080830192505050505050509192919290803590602001906401000000008111156108d057600080fd5b8201836020820111156108e257600080fd5b8035906020019184600183028401116401000000008311171561090457600080fd5b91908080601f016020809104026020016040519081016040528093929190818152602001838380828437600081840152601f19601f8201169050808301925050505050505091929192908035906020019064010000000081111561096757600080fd5b82018360208201111561097957600080fd5b8035906020019184600183028401116401000000008311171561099b57600080fd5b91908080601f016020809104026020016040519081016040528093929190818152602001838380828437600081840152601f19601f820116905080830192505050505050509192919290505050612f46565b6040518082815260200191505060405180910390f35b348015610a0f57600080fd5b50610c15600480360360c0811015610a2657600080fd5b8101908080359060200190640100000000811115610a4357600080fd5b820183602082011115610a5557600080fd5b80359060200191846001830284011164010000000083111715610a7757600080fd5b91908080601f016020809104026020016040519081016040528093929190818152602001838380828437600081840152601f19601f82011690508083019250505050505050919291929080359060200190640100000000811115610ada57600080fd5b820183602082011115610aec57600080fd5b80359060200191846001830284011164010000000083111715610b0e57600080fd5b91908080601f016020809104026020016040519081016040528093929190818152602001838380828437600081840152601f19601f8201169050808301925050505050505091929192908035906020019092919080359060200190640100000000811115610b7b57600080fd5b820183602082011115610b8d57600080fd5b80359060200191846001830284011164010000000083111715610baf57600080fd5b91908080601f016020809104026020016040519081016040528093929190818152602001838380828437600081840152601f19601f8201169050808301925050505050505091929192908035906020019092919080359060200190929190505050613054565b6040518082815260200191505060405180910390f35b348015610c3757600080fd5b50610d23600480360360c0811015610c4e57600080fd5b81019080803590602001909291908035906020019092919080359060200190929190803590602001909291908035906020019092919080359060200190640100000000811115610c9d57600080fd5b820183602082011115610caf57600080fd5b80359060200191846001830284011164010000000083111715610cd157600080fd5b91908080601f016020809104026020016040519081016040528093929190818152602001838380828437600081840152601f19601f82011690508083019250505050505050919291929050505061336e565b005b348015610d3157600080fd5b50610d5e60048036036020811015610d4857600080fd5b8101908080359060200190929190505050614800565b6040518082815260200191505060405180910390f35b348015610d8057600080fd5b50610f6860048036036060811015610d9757600080fd5b8101908080359060200190640100000000811115610db457600080fd5b820183602082011115610dc657600080fd5b80359060200191846001830284011164010000000083111715610de857600080fd5b91908080601f016020809104026020016040519081016040528093929190818152602001838380828437600081840152601f19601f82011690508083019250505050505050919291929080359060200190640100000000811115610e4b57600080fd5b820183602082011115610e5d57600080fd5b80359060200191846001830284011164010000000083111715610e7f57600080fd5b91908080601f016020809104026020016040519081016040528093929190818152602001838380828437600081840152601f19601f82011690508083019250505050505050919291929080359060200190640100000000811115610ee257600080fd5b820183602082011115610ef457600080fd5b80359060200191846001830284011164010000000083111715610f1657600080fd5b91908080601f016020809104026020016040519081016040528093929190818152602001838380828437600081840152601f19601f820116905080830192505050505050509192919290505050614849565b6040518082815260200191505060405180910390f35b6000606080606060008514156111fc57600060018703815481101515610fa057fe5b906000526020600020906004020160000154600060018803815481101515610fc457fe5b9060005260206000209060040201600101600060018903815481101515610fe757fe5b9060005260206000209060040201600201600060018a0381548110151561100a57fe5b9060005260206000209060040201600301828054600181600116156101000203166002900480601f0160208091040260200160405190810160405280929190818152602001828054600181600116156101000203166002900480156110b05780601f10611085576101008083540402835291602001916110b0565b820191906000526020600020905b81548152906001019060200180831161109357829003601f168201915b50505050509250818054600181600116156101000203166002900480601f01602080910402602001604051908101604052809291908181526020018280546001816001161561010002031660029004801561114c5780601f106111215761010080835404028352916020019161114c565b820191906000526020600020905b81548152906001019060200180831161112f57829003601f168201915b50505050509150808054600181600116156101000203166002900480601f0160208091040260200160405190810160405280929190818152602001828054600181600116156101000203166002900480156111e85780601f106111bd576101008083540402835291602001916111e8565b820191906000526020600020905b8154815290600101906020018083116111cb57829003601f168201915b5050505050905093509350935093506116e7565b600185141561146f57600180870381548110151561121657fe5b906000526020600020906004020160000154600180880381548110151561123957fe5b9060005260206000209060040201600101600180890381548110151561125b57fe5b90600052602060002090600402016002016001808a0381548110151561127d57fe5b9060005260206000209060040201600301828054600181600116156101000203166002900480601f0160208091040260200160405190810160405280929190818152602001828054600181600116156101000203166002900480156113235780601f106112f857610100808354040283529160200191611323565b820191906000526020600020905b81548152906001019060200180831161130657829003601f168201915b50505050509250818054600181600116156101000203166002900480601f0160208091040260200160405190810160405280929190818152602001828054600181600116156101000203166002900480156113bf5780601f10611394576101008083540402835291602001916113bf565b820191906000526020600020905b8154815290600101906020018083116113a257829003601f168201915b50505050509150808054600181600116156101000203166002900480601f01602080910402602001604051908101604052809291908181526020018280546001816001161561010002031660029004801561145b5780601f106114305761010080835404028352916020019161145b565b820191906000526020600020905b81548152906001019060200180831161143e57829003601f168201915b5050505050905093509350935093506116e7565b60028514156116e65760026001870381548110151561148a57fe5b9060005260206000209060040201600001546002600188038154811015156114ae57fe5b90600052602060002090600402016001016002600189038154811015156114d157fe5b9060005260206000209060040201600201600260018a038154811015156114f457fe5b9060005260206000209060040201600301828054600181600116156101000203166002900480601f01602080910402602001604051908101604052809291908181526020018280546001816001161561010002031660029004801561159a5780601f1061156f5761010080835404028352916020019161159a565b820191906000526020600020905b81548152906001019060200180831161157d57829003601f168201915b50505050509250818054600181600116156101000203166002900480601f0160208091040260200160405190810160405280929190818152602001828054600181600116156101000203166002900480156116365780601f1061160b57610100808354040283529160200191611636565b820191906000526020600020905b81548152906001019060200180831161161957829003601f168201915b50505050509150808054600181600116156101000203166002900480601f0160208091040260200160405190810160405280929190818152602001828054600181600116156101000203166002900480156116d25780601f106116a7576101008083540402835291602001916116d2565b820191906000526020600020905b8154815290600101906020018083116116b557829003601f168201915b5050505050905093509350935093506116e7565b5b92959194509250565b6000600180548091906001016117069190614bf4565b5060018054905060018080805490500381548110151561172257fe5b9060005260206000209060040201600001819055508360018080805490500381548110151561174d57fe5b90600052602060002090600402016001019080519060200190611771929190614c26565b508260018080805490500381548110151561178857fe5b906000526020600020906004020160020190805190602001906117ac929190614c26565b50816001808080549050038154811015156117c357fe5b906000526020600020906004020160030190805190602001906117e7929190614c26565b5060018054905090509392505050565b6000600380549050905090565b600080600060608060606000806000808a11801561182a57506001600380549050018a11155b151561183557600080fd5b61183d614ca6565b600080905060008090505b6003805490508110156125b6578c60038281548110151561186557fe5b9060005260206000200160009054906101000a900473ffffffffffffffffffffffffffffffffffffffff1673ffffffffffffffffffffffffffffffffffffffff1663019a91cb6040518163ffffffff167c010000000000000000000000000000000000000000000000000000000002815260040160206040518083038186803b1580156118f157600080fd5b505afa158015611905573d6000803e3d6000fd5b505050506040513d602081101561191b57600080fd5b810190808051906020019092919050505014156125a9576000821415611f945760038181548110151561194a57fe5b9060005260206000200160009054906101000a900473ffffffffffffffffffffffffffffffffffffffff1673ffffffffffffffffffffffffffffffffffffffff166315dae03e6040518163ffffffff167c010000000000000000000000000000000000000000000000000000000002815260040160006040518083038186803b1580156119d657600080fd5b505afa1580156119ea573d6000803e3d6000fd5b505050506040513d6000823e3d601f19601f820116820180604052506020811015611a1457600080fd5b810190808051640100000000811115611a2c57600080fd5b82810190506020810184811115611a4257600080fd5b8151856001820283011164010000000082111715611a5f57600080fd5b50509291905050508360000181905250600381815481101515611a7e57fe5b9060005260206000200160009054906101000a900473ffffffffffffffffffffffffffffffffffffffff1673ffffffffffffffffffffffffffffffffffffffff166317d7de7c6040518163ffffffff167c010000000000000000000000000000000000000000000000000000000002815260040160006040518083038186803b158015611b0a57600080fd5b505afa158015611b1e573d6000803e3d6000fd5b505050506040513d6000823e3d601f19601f820116820180604052506020811015611b4857600080fd5b810190808051640100000000811115611b6057600080fd5b82810190506020810184811115611b7657600080fd5b8151856001820283011164010000000082111715611b9357600080fd5b50509291905050508360200181905250600381815481101515611bb257fe5b9060005260206000200160009054906101000a900473ffffffffffffffffffffffffffffffffffffffff1673ffffffffffffffffffffffffffffffffffffffff1663320bafb26040518163ffffffff167c010000000000000000000000000000000000000000000000000000000002815260040160206040518083038186803b158015611c3e57600080fd5b505afa158015611c52573d6000803e3d6000fd5b505050506040513d6020811015611c6857600080fd5b8101908080519060200190929190505050836040018181525050600381815481101515611c9157fe5b9060005260206000200160009054906101000a900473ffffffffffffffffffffffffffffffffffffffff1673ffffffffffffffffffffffffffffffffffffffff1663a74c2bb66040518163ffffffff167c010000000000000000000000000000000000000000000000000000000002815260040160006040518083038186803b158015611d1d57600080fd5b505afa158015611d31573d6000803e3d6000fd5b505050506040513d6000823e3d601f19601f820116820180604052506020811015611d5b57600080fd5b810190808051640100000000811115611d7357600080fd5b82810190506020810184811115611d8957600080fd5b8151856001820283011164010000000082111715611da657600080fd5b50509291905050508360a00181905250600381815481101515611dc557fe5b9060005260206000200160009054906101000a900473ffffffffffffffffffffffffffffffffffffffff1673ffffffffffffffffffffffffffffffffffffffff16630115949c6040518163ffffffff167c010000000000000000000000000000000000000000000000000000000002815260040160206040518083038186803b158015611e5157600080fd5b505afa158015611e65573d6000803e3d6000fd5b505050506040513d6020811015611e7b57600080fd5b8101908080519060200190929190505050836101000181815250506000600382815481101515611ea757fe5b9060005260206000200160009054906101000a900473ffffffffffffffffffffffffffffffffffffffff1673ffffffffffffffffffffffffffffffffffffffff16630ee2cb106040518163ffffffff167c010000000000000000000000000000000000000000000000000000000002815260040160206040518083038186803b158015611f3357600080fd5b505afa158015611f47573d6000803e3d6000fd5b505050506040513d6020811015611f5d57600080fd5b81019080805190602001909291905050509050808461012001818152505082806001019350508084610180018181525050506125a8565b600182141561229d57600381815481101515611fac57fe5b9060005260206000200160009054906101000a900473ffffffffffffffffffffffffffffffffffffffff1673ffffffffffffffffffffffffffffffffffffffff166397175d026040518163ffffffff167c010000000000000000000000000000000000000000000000000000000002815260040160206040518083038186803b15801561203857600080fd5b505afa15801561204c573d6000803e3d6000fd5b505050506040513d602081101561206257600080fd5b81019080805190602001909291905050508361014001818152505060038181548110151561208c57fe5b9060005260206000200160009054906101000a900473ffffffffffffffffffffffffffffffffffffffff1673ffffffffffffffffffffffffffffffffffffffff1663a74c2bb66040518163ffffffff167c010000000000000000000000000000000000000000000000000000000002815260040160006040518083038186803b15801561211857600080fd5b505afa15801561212c573d6000803e3d6000fd5b505050506040513d6000823e3d601f19601f82011682018060405250602081101561215657600080fd5b81019080805164010000000081111561216e57600080fd5b8281019050602081018481111561218457600080fd5b81518560018202830111640100000000821117156121a157600080fd5b50509291905050508360c001819052506003818154811015156121c057fe5b9060005260206000200160009054906101000a900473ffffffffffffffffffffffffffffffffffffffff1673ffffffffffffffffffffffffffffffffffffffff166336091bab6040518163ffffffff167c010000000000000000000000000000000000000000000000000000000002815260040160206040518083038186803b15801561224c57600080fd5b505afa158015612260573d6000803e3d6000fd5b505050506040513d602081101561227657600080fd5b810190808051906020019092919050505083606001818152505081806001019250506125a7565b60028214156125a6576003818154811015156122b557fe5b9060005260206000200160009054906101000a900473ffffffffffffffffffffffffffffffffffffffff1673ffffffffffffffffffffffffffffffffffffffff166397175d026040518163ffffffff167c010000000000000000000000000000000000000000000000000000000002815260040160206040518083038186803b15801561234157600080fd5b505afa158015612355573d6000803e3d6000fd5b505050506040513d602081101561236b57600080fd5b81019080805190602001909291905050508361016001818152505060038181548110151561239557fe5b9060005260206000200160009054906101000a900473ffffffffffffffffffffffffffffffffffffffff1673ffffffffffffffffffffffffffffffffffffffff1663a74c2bb66040518163ffffffff167c010000000000000000000000000000000000000000000000000000000002815260040160006040518083038186803b15801561242157600080fd5b505afa158015612435573d6000803e3d6000fd5b505050506040513d6000823e3d601f19601f82011682018060405250602081101561245f57600080fd5b81019080805164010000000081111561247757600080fd5b8281019050602081018481111561248d57600080fd5b81518560018202830111640100000000821117156124aa57600080fd5b50509291905050508360e001819052506003818154811015156124c957fe5b9060005260206000200160009054906101000a900473ffffffffffffffffffffffffffffffffffffffff1673ffffffffffffffffffffffffffffffffffffffff166336091bab6040518163ffffffff167c010000000000000000000000000000000000000000000000000000000002815260040160206040518083038186803b15801561255557600080fd5b505afa158015612569573d6000803e3d6000fd5b505050506040513d602081101561257f57600080fd5b810190808051906020019092919050505083608001818152505081806001019250506125b6565b5b5b5b8080600101915050611848565b508160400151826060015183608001518460a001518560c001518660e001518761014001518861016001518961018001518595508494508393509a509a509a509a509a509a509a509a509a5050509193959799909294969850565b6000606080600080606060008060008060008060008090505b60038054905081101561275e578d60038281548110151561264757fe5b9060005260206000200160009054906101000a900473ffffffffffffffffffffffffffffffffffffffff1673ffffffffffffffffffffffffffffffffffffffff1663019a91cb6040518163ffffffff167c010000000000000000000000000000000000000000000000000000000002815260040160206040518083038186803b1580156126d357600080fd5b505afa1580156126e7573d6000803e3d6000fd5b505050506040513d60208110156126fd57600080fd5b810190808051906020019092919050505014156127515760038181548110151561272357fe5b9060005260206000200160009054906101000a900473ffffffffffffffffffffffffffffffffffffffff1691505b808060010191505061262a565b508073ffffffffffffffffffffffffffffffffffffffff1663019a91cb6040518163ffffffff167c010000000000000000000000000000000000000000000000000000000002815260040160206040518083038186803b1580156127c157600080fd5b505afa1580156127d5573d6000803e3d6000fd5b505050506040513d60208110156127eb57600080fd5b81019080805190602001909291905050508173ffffffffffffffffffffffffffffffffffffffff166315dae03e6040518163ffffffff167c010000000000000000000000000000000000000000000000000000000002815260040160006040518083038186803b15801561285e57600080fd5b505afa158015612872573d6000803e3d6000fd5b505050506040513d6000823e3d601f19601f82011682018060405250602081101561289c57600080fd5b8101908080516401000000008111156128b457600080fd5b828101905060208101848111156128ca57600080fd5b81518560018202830111640100000000821117156128e757600080fd5b50509291905050508273ffffffffffffffffffffffffffffffffffffffff166317d7de7c6040518163ffffffff167c010000000000000000000000000000000000000000000000000000000002815260040160006040518083038186803b15801561295157600080fd5b505afa158015612965573d6000803e3d6000fd5b505050506040513d6000823e3d601f19601f82011682018060405250602081101561298f57600080fd5b8101908080516401000000008111156129a757600080fd5b828101905060208101848111156129bd57600080fd5b81518560018202830111640100000000821117156129da57600080fd5b50509291905050508373ffffffffffffffffffffffffffffffffffffffff1663320bafb26040518163ffffffff167c010000000000000000000000000000000000000000000000000000000002815260040160206040518083038186803b158015612a4457600080fd5b505afa158015612a58573d6000803e3d6000fd5b505050506040513d6020811015612a6e57600080fd5b81019080805190602001909291905050508473ffffffffffffffffffffffffffffffffffffffff166336091bab6040518163ffffffff167c010000000000000000000000000000000000000000000000000000000002815260040160206040518083038186803b158015612ae157600080fd5b505afa158015612af5573d6000803e3d6000fd5b505050506040513d6020811015612b0b57600080fd5b81019080805190602001909291905050508573ffffffffffffffffffffffffffffffffffffffff1663a74c2bb66040518163ffffffff167c010000000000000000000000000000000000000000000000000000000002815260040160006040518083038186803b158015612b7e57600080fd5b505afa158015612b92573d6000803e3d6000fd5b505050506040513d6000823e3d601f19601f820116820180604052506020811015612bbc57600080fd5b810190808051640100000000811115612bd457600080fd5b82810190506020810184811115612bea57600080fd5b8151856001820283011164010000000082111715612c0757600080fd5b50509291905050508673ffffffffffffffffffffffffffffffffffffffff16630115949c6040518163ffffffff167c010000000000000000000000000000000000000000000000000000000002815260040160206040518083038186803b158015612c7157600080fd5b505afa158015612c85573d6000803e3d6000fd5b505050506040513d6020811015612c9b57600080fd5b81019080805190602001909291905050508773ffffffffffffffffffffffffffffffffffffffff166397175d026040518163ffffffff167c010000000000000000000000000000000000000000000000000000000002815260040160206040518083038186803b158015612d0e57600080fd5b505afa158015612d22573d6000803e3d6000fd5b505050506040513d6020811015612d3857600080fd5b81019080805190602001909291905050508873ffffffffffffffffffffffffffffffffffffffff16630c2d46ea6040518163ffffffff167c010000000000000000000000000000000000000000000000000000000002815260040160206040518083038186803b158015612dab57600080fd5b505afa158015612dbf573d6000803e3d6000fd5b505050506040513d6020811015612dd557600080fd5b81019080805190602001909291905050508973ffffffffffffffffffffffffffffffffffffffff16630ee2cb106040518163ffffffff167c010000000000000000000000000000000000000000000000000000000002815260040160206040518083038186803b158015612e4857600080fd5b505afa158015612e5c573d6000803e3d6000fd5b505050506040513d6020811015612e7257600080fd5b81019080805190602001909291905050508a73ffffffffffffffffffffffffffffffffffffffff1663b9cd862a6040518163ffffffff167c010000000000000000000000000000000000000000000000000000000002815260040160206040518083038186803b158015612ee557600080fd5b505afa158015612ef9573d6000803e3d6000fd5b505050506040513d6020811015612f0f57600080fd5b81019080805190602001909291905050509b509b509b509b509b509b509b509b509b509b509b505091939597999b90929496989a50565b6000808054809190600101612f5b9190614bf4565b506000805490506000600160008054905003815481101515612f7957fe5b906000526020600020906004020160000181905550836000600160008054905003815481101515612fa657fe5b90600052602060002090600402016001019080519060200190612fca929190614c26565b50826000600160008054905003815481101515612fe357fe5b90600052602060002090600402016002019080519060200190613007929190614c26565b5081600060016000805490500381548110151561302057fe5b90600052602060002090600402016003019080519060200190613044929190614c26565b5060008054905090509392505050565b6000808211801561306d57506001600080549050018211155b151561307857600080fd5b6000613082614d0f565b604051809103906000f08015801561309e573d6000803e3d6000fd5b5090508073ffffffffffffffffffffffffffffffffffffffff1663ce3065d66001600380549050018a8a8a8a8a8a6040518863ffffffff167c01000000000000000000000000000000000000000000000000000000000281526004018088815260200180602001806020018781526020018060200186815260200185815260200184810384528a818151815260200191508051906020019080838360005b8381101561315757808201518184015260208101905061313c565b50505050905090810190601f1680156131845780820380516001836020036101000a031916815260200191505b50848103835289818151815260200191508051906020019080838360005b838110156131bd5780820151818401526020810190506131a2565b50505050905090810190601f1680156131ea5780820380516001836020036101000a031916815260200191505b50848103825287818151815260200191508051906020019080838360005b83811015613223578082015181840152602081019050613208565b50505050905090810190601f1680156132505780820380516001836020036101000a031916815260200191505b509a5050505050505050505050600060405180830381600087803b15801561327757600080fd5b505af115801561328b573d6000803e3d6000fd5b5050505060048190806001815401808255809150509060018203906000526020600020016000909192909190916101000a81548173ffffffffffffffffffffffffffffffffffffffff021916908373ffffffffffffffffffffffffffffffffffffffff1602179055505060038190806001815401808255809150509060018203906000526020600020016000909192909190916101000a81548173ffffffffffffffffffffffffffffffffffffffff021916908373ffffffffffffffffffffffffffffffffffffffff160217905550506003805490509150509695505050505050565b60008611801561338657506001600380549050018611155b151561339157600080fd5b6000821415613dc45760006133a7876000614958565b9050858173ffffffffffffffffffffffffffffffffffffffff166397175d026040518163ffffffff167c010000000000000000000000000000000000000000000000000000000002815260040160206040518083038186803b15801561340c57600080fd5b505afa158015613420573d6000803e3d6000fd5b505050506040513d602081101561343657600080fd5b810190808051906020019092919050505014151561345457506147f8565b8073ffffffffffffffffffffffffffffffffffffffff1663571f13e46040518163ffffffff167c0100000000000000000000000000000000000000000000000000000000028152600401600060405180830381600087803b1580156134b857600080fd5b505af11580156134cc573d6000803e3d6000fd5b5050505060006134da614d0f565b604051809103906000f0801580156134f6573d6000803e3d6000fd5b5090508073ffffffffffffffffffffffffffffffffffffffff1663ce3065d68373ffffffffffffffffffffffffffffffffffffffff1663019a91cb6040518163ffffffff167c010000000000000000000000000000000000000000000000000000000002815260040160206040518083038186803b15801561357757600080fd5b505afa15801561358b573d6000803e3d6000fd5b505050506040513d60208110156135a157600080fd5b81019080805190602001909291905050508473ffffffffffffffffffffffffffffffffffffffff166315dae03e6040518163ffffffff167c010000000000000000000000000000000000000000000000000000000002815260040160006040518083038186803b15801561361457600080fd5b505afa158015613628573d6000803e3d6000fd5b505050506040513d6000823e3d601f19601f82011682018060405250602081101561365257600080fd5b81019080805164010000000081111561366a57600080fd5b8281019050602081018481111561368057600080fd5b815185600182028301116401000000008211171561369d57600080fd5b50509291905050508573ffffffffffffffffffffffffffffffffffffffff166317d7de7c6040518163ffffffff167c010000000000000000000000000000000000000000000000000000000002815260040160006040518083038186803b15801561370757600080fd5b505afa15801561371b573d6000803e3d6000fd5b505050506040513d6000823e3d601f19601f82011682018060405250602081101561374557600080fd5b81019080805164010000000081111561375d57600080fd5b8281019050602081018481111561377357600080fd5b815185600182028301116401000000008211171561379057600080fd5b50509291905050508673ffffffffffffffffffffffffffffffffffffffff1663320bafb26040518163ffffffff167c010000000000000000000000000000000000000000000000000000000002815260040160206040518083038186803b1580156137fa57600080fd5b505afa15801561380e573d6000803e3d6000fd5b505050506040513d602081101561382457600080fd5b8101908080519060200190929190505050888873ffffffffffffffffffffffffffffffffffffffff16630115949c6040518163ffffffff167c010000000000000000000000000000000000000000000000000000000002815260040160206040518083038186803b15801561389857600080fd5b505afa1580156138ac573d6000803e3d6000fd5b505050506040513d60208110156138c257600080fd5b81019080805190602001909291905050508d6040518863ffffffff167c01000000000000000000000000000000000000000000000000000000000281526004018088815260200180602001806020018781526020018060200186815260200185815260200184810384528a818151815260200191508051906020019080838360005b8381101561395f578082015181840152602081019050613944565b50505050905090810190601f16801561398c5780820380516001836020036101000a031916815260200191505b50848103835289818151815260200191508051906020019080838360005b838110156139c55780820151818401526020810190506139aa565b50505050905090810190601f1680156139f25780820380516001836020036101000a031916815260200191505b50848103825287818151815260200191508051906020019080838360005b83811015613a2b578082015181840152602081019050613a10565b50505050905090810190601f168015613a585780820380516001836020036101000a031916815260200191505b509a5050505050505050505050600060405180830381600087803b158015613a7f57600080fd5b505af1158015613a93573d6000803e3d6000fd5b505050508073ffffffffffffffffffffffffffffffffffffffff1663a50ec277866040518263ffffffff167c010000000000000000000000000000000000000000000000000000000002815260040180828152602001915050600060405180830381600087803b158015613b0657600080fd5b505af1158015613b1a573d6000803e3d6000fd5b505050508073ffffffffffffffffffffffffffffffffffffffff1663acdf904a886040518263ffffffff167c010000000000000000000000000000000000000000000000000000000002815260040180828152602001915050600060405180830381600087803b158015613b8d57600080fd5b505af1158015613ba1573d6000803e3d6000fd5b505050508073ffffffffffffffffffffffffffffffffffffffff1663340c531c8373ffffffffffffffffffffffffffffffffffffffff16630ee2cb106040518163ffffffff167c010000000000000000000000000000000000000000000000000000000002815260040160206040518083038186803b158015613c2357600080fd5b505afa158015613c37573d6000803e3d6000fd5b505050506040513d6020811015613c4d57600080fd5b81019080805190602001909291905050506040518263ffffffff167c010000000000000000000000000000000000000000000000000000000002815260040180828152602001915050600060405180830381600087803b158015613cb057600080fd5b505af1158015613cc4573d6000803e3d6000fd5b5050505060058190806001815401808255809150509060018203906000526020600020016000909192909190916101000a81548173ffffffffffffffffffffffffffffffffffffffff021916908373ffffffffffffffffffffffffffffffffffffffff1602179055505060038190806001815401808255809150509060018203906000526020600020016000909192909190916101000a81548173ffffffffffffffffffffffffffffffffffffffff021916908373ffffffffffffffffffffffffffffffffffffffff16021790555050877fec170b04e220cce231576ef20a51ea57e8aa3a8772b7031a81f3ecd7f6e637ad60405160405180910390a250505b60018214156147f7576000613dda876001614958565b9050858173ffffffffffffffffffffffffffffffffffffffff166397175d026040518163ffffffff167c010000000000000000000000000000000000000000000000000000000002815260040160206040518083038186803b158015613e3f57600080fd5b505afa158015613e53573d6000803e3d6000fd5b505050506040513d6020811015613e6957600080fd5b8101908080519060200190929190505050141515613e8757506147f8565b8073ffffffffffffffffffffffffffffffffffffffff1663571f13e46040518163ffffffff167c0100000000000000000000000000000000000000000000000000000000028152600401600060405180830381600087803b158015613eeb57600080fd5b505af1158015613eff573d6000803e3d6000fd5b505050506000613f0d614d0f565b604051809103906000f080158015613f29573d6000803e3d6000fd5b5090508073ffffffffffffffffffffffffffffffffffffffff1663ce3065d68373ffffffffffffffffffffffffffffffffffffffff1663019a91cb6040518163ffffffff167c010000000000000000000000000000000000000000000000000000000002815260040160206040518083038186803b158015613faa57600080fd5b505afa158015613fbe573d6000803e3d6000fd5b505050506040513d6020811015613fd457600080fd5b81019080805190602001909291905050508473ffffffffffffffffffffffffffffffffffffffff166315dae03e6040518163ffffffff167c010000000000000000000000000000000000000000000000000000000002815260040160006040518083038186803b15801561404757600080fd5b505afa15801561405b573d6000803e3d6000fd5b505050506040513d6000823e3d601f19601f82011682018060405250602081101561408557600080fd5b81019080805164010000000081111561409d57600080fd5b828101905060208101848111156140b357600080fd5b81518560018202830111640100000000821117156140d057600080fd5b50509291905050508573ffffffffffffffffffffffffffffffffffffffff166317d7de7c6040518163ffffffff167c010000000000000000000000000000000000000000000000000000000002815260040160006040518083038186803b15801561413a57600080fd5b505afa15801561414e573d6000803e3d6000fd5b505050506040513d6000823e3d601f19601f82011682018060405250602081101561417857600080fd5b81019080805164010000000081111561419057600080fd5b828101905060208101848111156141a657600080fd5b81518560018202830111640100000000821117156141c357600080fd5b50509291905050508673ffffffffffffffffffffffffffffffffffffffff1663320bafb26040518163ffffffff167c010000000000000000000000000000000000000000000000000000000002815260040160206040518083038186803b15801561422d57600080fd5b505afa158015614241573d6000803e3d6000fd5b505050506040513d602081101561425757600080fd5b8101908080519060200190929190505050888873ffffffffffffffffffffffffffffffffffffffff16630115949c6040518163ffffffff167c010000000000000000000000000000000000000000000000000000000002815260040160206040518083038186803b1580156142cb57600080fd5b505afa1580156142df573d6000803e3d6000fd5b505050506040513d60208110156142f557600080fd5b81019080805190602001909291905050508d6040518863ffffffff167c01000000000000000000000000000000000000000000000000000000000281526004018088815260200180602001806020018781526020018060200186815260200185815260200184810384528a818151815260200191508051906020019080838360005b83811015614392578082015181840152602081019050614377565b50505050905090810190601f1680156143bf5780820380516001836020036101000a031916815260200191505b50848103835289818151815260200191508051906020019080838360005b838110156143f85780820151818401526020810190506143dd565b50505050905090810190601f1680156144255780820380516001836020036101000a031916815260200191505b50848103825287818151815260200191508051906020019080838360005b8381101561445e578082015181840152602081019050614443565b50505050905090810190601f16801561448b5780820380516001836020036101000a031916815260200191505b509a5050505050505050505050600060405180830381600087803b1580156144b257600080fd5b505af11580156144c6573d6000803e3d6000fd5b505050508073ffffffffffffffffffffffffffffffffffffffff1663a50ec277866040518263ffffffff167c010000000000000000000000000000000000000000000000000000000002815260040180828152602001915050600060405180830381600087803b15801561453957600080fd5b505af115801561454d573d6000803e3d6000fd5b505050508073ffffffffffffffffffffffffffffffffffffffff1663acdf904a886040518263ffffffff167c010000000000000000000000000000000000000000000000000000000002815260040180828152602001915050600060405180830381600087803b1580156145c057600080fd5b505af11580156145d4573d6000803e3d6000fd5b505050508073ffffffffffffffffffffffffffffffffffffffff1663340c531c8373ffffffffffffffffffffffffffffffffffffffff16630ee2cb106040518163ffffffff167c010000000000000000000000000000000000000000000000000000000002815260040160206040518083038186803b15801561465657600080fd5b505afa15801561466a573d6000803e3d6000fd5b505050506040513d602081101561468057600080fd5b81019080805190602001909291905050506040518263ffffffff167c010000000000000000000000000000000000000000000000000000000002815260040180828152602001915050600060405180830381600087803b1580156146e357600080fd5b505af11580156146f7573d6000803e3d6000fd5b5050505060068190806001815401808255809150509060018203906000526020600020016000909192909190916101000a81548173ffffffffffffffffffffffffffffffffffffffff021916908373ffffffffffffffffffffffffffffffffffffffff1602179055505060038190806001815401808255809150509060018203906000526020600020016000909192909190916101000a81548173ffffffffffffffffffffffffffffffffffffffff021916908373ffffffffffffffffffffffffffffffffffffffff16021790555050877fec170b04e220cce231576ef20a51ea57e8aa3a8772b7031a81f3ecd7f6e637ad60405160405180910390a250505b5b505050505050565b600080821415614817576000805490509050614844565b600182141561482d576001805490509050614844565b6002821415614843576002805490509050614844565b5b919050565b60006002805480919060010161485f9190614bf4565b50600280549050600260016002805490500381548110151561487d57fe5b9060005260206000209060040201600001819055508360026001600280549050038154811015156148aa57fe5b906000526020600020906004020160010190805190602001906148ce929190614c26565b508260026001600280549050038154811015156148e757fe5b9060005260206000209060040201600201908051906020019061490b929190614c26565b5081600260016002805490500381548110151561492457fe5b90600052602060002090600402016003019080519060200190614948929190614c26565b5060028054905090509392505050565b600080821415614aa35760008090505b600480549050811015614aa1578360048281548110151561498557fe5b9060005260206000200160009054906101000a900473ffffffffffffffffffffffffffffffffffffffff1673ffffffffffffffffffffffffffffffffffffffff1663019a91cb6040518163ffffffff167c010000000000000000000000000000000000000000000000000000000002815260040160206040518083038186803b158015614a1157600080fd5b505afa158015614a25573d6000803e3d6000fd5b505050506040513d6020811015614a3b57600080fd5b81019080805190602001909291905050501415614a9457600481815481101515614a6157fe5b9060005260206000200160009054906101000a900473ffffffffffffffffffffffffffffffffffffffff16915050614bee565b8080600101915050614968565b505b6001821415614bed5760008090505b600580549050811015614beb5783600582815481101515614acf57fe5b9060005260206000200160009054906101000a900473ffffffffffffffffffffffffffffffffffffffff1673ffffffffffffffffffffffffffffffffffffffff1663019a91cb6040518163ffffffff167c010000000000000000000000000000000000000000000000000000000002815260040160206040518083038186803b158015614b5b57600080fd5b505afa158015614b6f573d6000803e3d6000fd5b505050506040513d6020811015614b8557600080fd5b81019080805190602001909291905050501415614bde57600581815481101515614bab57fe5b9060005260206000200160009054906101000a900473ffffffffffffffffffffffffffffffffffffffff16915050614bee565b8080600101915050614ab2565b505b5b92915050565b815481835581811115614c2157600402816004028360005260206000209182019101614c209190614d1f565b5b505050565b828054600181600116156101000203166002900490600052602060002090601f016020900481019282601f10614c6757805160ff1916838001178555614c95565b82800160010185558215614c95579182015b82811115614c94578251825591602001919060010190614c79565b5b509050614ca29190614d76565b5090565b6101a060405190810160405280606081526020016060815260200160008152602001600081526020016000815260200160608152602001606081526020016060815260200160008152602001600081526020016000815260200160008152602001600081525090565b6040516111b880614de483390190565b614d7391905b80821115614d6f57600080820160009055600182016000614d469190614d9b565b600282016000614d569190614d9b565b600382016000614d669190614d9b565b50600401614d25565b5090565b90565b614d9891905b80821115614d94576000816000905550600101614d7c565b5090565b90565b50805460018160011615610100020316600290046000825580601f10614dc15750614de0565b601f016020900490600052602060002090810190614ddf9190614d76565b5b5056fe60806040526111a5806100136000396000f3fe608060405260043610610175576000357c0100000000000000000000000000000000000000000000000000000000900463ffffffff1680630115949c1461017a578063019a91cb146101a557806302d05d3f146101d057806306fdde03146101fb5780630c2d46ea1461028b5780630ee2cb10146102b657806315dae03e146102e157806317d7de7c1461037157806317fc45e2146104015780631ff728481461042c578063216b9116146104f457806324cda88614610584578063320bafb214610614578063340c531c1461063f57806336091bab1461067a5780634150419f146106a557806342170d77146106d0578063571f13e4146106fb578063869984c81461071257806397175d021461073d578063a50ec27714610768578063a74c2bb6146107a3578063acdf904a14610833578063b9cd862a1461086e578063ba446ae91461089d578063ce3065d6146108cc578063d0e4965114610aea578063d86866e414610b15578063da5d268f14610b52575b600080fd5b34801561018657600080fd5b5061018f610b7d565b6040518082815260200191505060405180910390f35b3480156101b157600080fd5b506101ba610b87565b6040518082815260200191505060405180910390f35b3480156101dc57600080fd5b506101e5610b90565b6040518082815260200191505060405180910390f35b34801561020757600080fd5b50610210610b96565b6040518080602001828103825283818151815260200191508051906020019080838360005b83811015610250578082015181840152602081019050610235565b50505050905090810190601f16801561027d5780820380516001836020036101000a031916815260200191505b509250505060405180910390f35b34801561029757600080fd5b506102a0610c34565b6040518082815260200191505060405180910390f35b3480156102c257600080fd5b506102cb610c3e565b6040518082815260200191505060405180910390f35b3480156102ed57600080fd5b506102f6610c48565b6040518080602001828103825283818151815260200191508051906020019080838360005b8381101561033657808201518184015260208101905061031b565b50505050905090810190601f1680156103635780820380516001836020036101000a031916815260200191505b509250505060405180910390f35b34801561037d57600080fd5b50610386610cea565b6040518080602001828103825283818151815260200191508051906020019080838360005b838110156103c65780820151818401526020810190506103ab565b50505050905090810190601f1680156103f35780820380516001836020036101000a031916815260200191505b509250505060405180910390f35b34801561040d57600080fd5b50610416610d8c565b6040518082815260200191505060405180910390f35b34801561043857600080fd5b506104f26004803603602081101561044f57600080fd5b810190808035906020019064010000000081111561046c57600080fd5b82018360208201111561047e57600080fd5b803590602001918460018302840111640100000000831117156104a057600080fd5b91908080601f016020809104026020016040519081016040528093929190818152602001838380828437600081840152601f19601f820116905080830192505050505050509192919290505050610d92565b005b34801561050057600080fd5b50610509610dac565b6040518080602001828103825283818151815260200191508051906020019080838360005b8381101561054957808201518184015260208101905061052e565b50505050905090810190601f1680156105765780820380516001836020036101000a031916815260200191505b509250505060405180910390f35b34801561059057600080fd5b50610599610e4a565b6040518080602001828103825283818151815260200191508051906020019080838360005b838110156105d95780820151818401526020810190506105be565b50505050905090810190601f1680156106065780820380516001836020036101000a031916815260200191505b509250505060405180910390f35b34801561062057600080fd5b50610629610ee8565b6040518082815260200191505060405180910390f35b34801561064b57600080fd5b506106786004803603602081101561066257600080fd5b8101908080359060200190929190505050610ef2565b005b34801561068657600080fd5b5061068f610efc565b6040518082815260200191505060405180910390f35b3480156106b157600080fd5b506106ba610f06565b6040518082815260200191505060405180910390f35b3480156106dc57600080fd5b506106e5610f0c565b6040518082815260200191505060405180910390f35b34801561070757600080fd5b50610710610f12565b005b34801561071e57600080fd5b50610727610f2f565b6040518082815260200191505060405180910390f35b34801561074957600080fd5b50610752610f35565b6040518082815260200191505060405180910390f35b34801561077457600080fd5b506107a16004803603602081101561078b57600080fd5b8101908080359060200190929190505050610f3f565b005b3480156107af57600080fd5b506107b8610f49565b6040518080602001828103825283818151815260200191508051906020019080838360005b838110156107f85780820151818401526020810190506107dd565b50505050905090810190601f1680156108255780820380516001836020036101000a031916815260200191505b509250505060405180910390f35b34801561083f57600080fd5b5061086c6004803603602081101561085657600080fd5b8101908080359060200190929190505050610feb565b005b34801561087a57600080fd5b50610883610ff5565b604051808215151515815260200191505060405180910390f35b3480156108a957600080fd5b506108b261100c565b604051808215151515815260200191505060405180910390f35b3480156108d857600080fd5b50610ae8600480360360e08110156108ef57600080fd5b81019080803590602001909291908035906020019064010000000081111561091657600080fd5b82018360208201111561092857600080fd5b8035906020019184600183028401116401000000008311171561094a57600080fd5b91908080601f016020809104026020016040519081016040528093929190818152602001838380828437600081840152601f19601f820116905080830192505050505050509192919290803590602001906401000000008111156109ad57600080fd5b8201836020820111156109bf57600080fd5b803590602001918460018302840111640100000000831117156109e157600080fd5b91908080601f016020809104026020016040519081016040528093929190818152602001838380828437600081840152601f19601f8201169050808301925050505050505091929192908035906020019092919080359060200190640100000000811115610a4e57600080fd5b820183602082011115610a6057600080fd5b80359060200191846001830284011164010000000083111715610a8257600080fd5b91908080601f016020809104026020016040519081016040528093929190818152602001838380828437600081840152601f19601f820116905080830192505050505050509192919290803590602001909291908035906020019092919050505061101f565b005b348015610af657600080fd5b50610aff6110ab565b6040518082815260200191505060405180910390f35b348015610b2157600080fd5b50610b5060048036036020811015610b3857600080fd5b810190808035151590602001909291905050506110b1565b005b348015610b5e57600080fd5b50610b676110ce565b6040518082815260200191505060405180910390f35b6000600654905090565b60008054905090565b60095481565b60028054600181600116156101000203166002900480601f016020809104026020016040519081016040528092919081815260200182805460018160011615610100020316600290048015610c2c5780601f10610c0157610100808354040283529160200191610c2c565b820191906000526020600020905b815481529060010190602001808311610c0f57829003601f168201915b505050505081565b6000600854905090565b6000600954905090565b606060018054600181600116156101000203166002900480601f016020809104026020016040519081016040528092919081815260200182805460018160011615610100020316600290048015610ce05780601f10610cb557610100808354040283529160200191610ce0565b820191906000526020600020905b815481529060010190602001808311610cc357829003601f168201915b5050505050905090565b606060028054600181600116156101000203166002900480601f016020809104026020016040519081016040528092919081815260200182805460018160011615610100020316600290048015610d825780601f10610d5757610100808354040283529160200191610d82565b820191906000526020600020905b815481529060010190602001808311610d6557829003601f168201915b5050505050905090565b60065481565b8060059080519060200190610da89291906110d4565b5050565b60018054600181600116156101000203166002900480601f016020809104026020016040519081016040528092919081815260200182805460018160011615610100020316600290048015610e425780601f10610e1757610100808354040283529160200191610e42565b820191906000526020600020905b815481529060010190602001808311610e2557829003601f168201915b505050505081565b60058054600181600116156101000203166002900480601f016020809104026020016040519081016040528092919081815260200182805460018160011615610100020316600290048015610ee05780601f10610eb557610100808354040283529160200191610ee0565b820191906000526020600020905b815481529060010190602001808311610ec357829003601f168201915b505050505081565b6000600354905090565b8060098190555050565b6000600454905090565b60005481565b60045481565b6001600a60006101000a81548160ff021916908315150217905550565b60075481565b6000600754905090565b8060048190555050565b606060058054600181600116156101000203166002900480601f016020809104026020016040519081016040528092919081815260200182805460018160011615610100020316600290048015610fe15780601f10610fb657610100808354040283529160200191610fe1565b820191906000526020600020905b815481529060010190602001808311610fc457829003601f168201915b5050505050905090565b8060088190555050565b6000600a60009054906101000a900460ff16905090565b600a60009054906101000a900460ff1681565b86600081905550856001908051906020019061103c9291906110d4565b5083600381905550806007819055508160068190555080600981905550846002908051906020019061106f9291906110d4565b5082600590805190602001906110869291906110d4565b506000600a60006101000a81548160ff02191690831515021790555050505050505050565b60085481565b80600a60006101000a81548160ff02191690831515021790555050565b60035481565b828054600181600116156101000203166002900490600052602060002090601f016020900481019282601f1061111557805160ff1916838001178555611143565b82800160010185558215611143579182015b82811115611142578251825591602001919060010190611127565b5b5090506111509190611154565b5090565b61117691905b8082111561117257600081600090555060010161115a565b5090565b9056fea165627a7a72305820c0630b1c590edc1f3b84998f7d6b6fa80cb4ec37625fb7433999d58400aac28e0029a165627a7a7230582074ba44e6b2134f8f12ef7350a77f463b6faac70c36f313abd987d9340e00eecb0029",
  "source": "pragma solidity >=0.4.25 <0.6.0;\n\nimport \"./Product.sol\";\n\ncontract Food {\n\n    struct proHistory {\n        string  pType;\n        string  name;\n        uint  harDate;\n        uint  shipDateToSupp;\n        uint  shipDateToRetai;\n        string  shipAddrFarmer;\n        string  shipAddrToSupp;\n        string  shipAddrToRetai;\n        uint  quantity;\n        uint  addrFarmer;\n        uint  addrSupplier;\n        uint  addrRetailer;\n        uint  creator;\n    }\n\n    struct Company {\n        uint id;\n        string activity;\n        string companyname;\n        string location;\n    }\n\n    Company[] farmers;\n    Company[] suppliers;\n    Company[] retailers;\n    Product[] products;\n\n    // uint public farmersCount;\n    // uint public suppliersCount;\n    // uint public retailersCount;\n    // uint public productsCount;\n\n    Product[] farmersPro;\n    Product[] suppliersPro;\n    Product[] retailersPro;\n\n    // uint public ProfarmersCount;\n    // uint public ProsuppliersCount;\n    // uint public ProretailersCount;\n\n    constructor () public {\n\n    }\n    // add a farmer\n    function addFarmer(string memory _activity,string memory _username,string memory _location) public returns (uint){\n        farmers.length ++;\n        farmers[farmers.length-1].id = farmers.length;\n        farmers[farmers.length-1].activity = _activity;\n        farmers[farmers.length-1].companyname = _username;\n        farmers[farmers.length-1].location = _location;\n        return farmers.length;\n    }\n\n    // add a supplier\n    function addSupplier (string memory _activity,string memory _company,string memory _location) public returns (uint){\n        suppliers.length ++;\n        suppliers[suppliers.length-1].id = suppliers.length;\n        suppliers[suppliers.length-1].activity = _activity;\n        suppliers[suppliers.length-1].companyname = _company;\n        suppliers[suppliers.length-1].location = _location;\n        return suppliers.length;\n    }\n\n    //add a retailer\n    function addRetailer (string memory _activity,string memory _company,string memory _location) public returns (uint){\n        retailers.length ++;\n        retailers[retailers.length-1].id = retailers.length;\n        retailers[retailers.length-1].activity = _activity;\n        retailers[retailers.length-1].companyname = _company;\n        retailers[retailers.length-1].location = _location;\n        return retailers.length;\n    }\n\n    //add a product only by a farmer\n    function addProduct(string memory _pType,string memory _name,uint _harDate,string memory _shipAddr,uint _quantity, uint _owner ) public returns (uint){\n        require(_owner > 0 && _owner <= farmers.length+1);\n        Product p = new Product ();\n        p.setProductArguemtns (products.length+1,_pType,_name, _harDate,_shipAddr,_quantity,_owner);\n        farmersPro.push( p);\n        products.push(p);\n        return products.length;\n    }\n\n\n    function ship (uint _productId,uint _owner, uint _addrReceiver,uint _shipDate, uint _receiver, string memory _addr) public {\n\n        require ((_productId >0) && (_productId <= products.length+1));\n\n        // shipment done by the farmer\n        if (_receiver == 0) { // checking if the shipment is done by a farmer\n            Product a = getPro(_productId,0);\n            if (a.getAddrOwner() != _owner)\n            return;\n\n            a.setShippedProduct();\n            Product p = new Product();\n            p.setProductArguemtns(a.getIdProduct(),a.getType(),a.getName(),a.getHarDate(),_addr,a.getQuantity(),_addrReceiver);\n            p.setShipDate (_shipDate);\n            p.setAddrPrvOwner(_owner);\n            p.setCreator (a.getCreator());\n\n            suppliersPro.push(p);\n            products.push(p);\n\n            emit shipEvent(_productId);\n        }\n\n        // shipment done by the supplier\n        if (_receiver == 1) { // checking if the shipment is done by a supplier\n\n            Product a =getPro(_productId,1);\n\n            if (a.getAddrOwner() != _owner)\n            return;\n\n            a.setShippedProduct();\n\n            Product p = new Product();\n            p.setProductArguemtns(a.getIdProduct(),a.getType(),a.getName(),a.getHarDate(),_addr,a.getQuantity(),_addrReceiver);\n            p.setShipDate (_shipDate);\n            p.setAddrPrvOwner(_owner);\n            p.setCreator (a.getCreator());\n\n            retailersPro.push(p);\n            products.push(p);\n            emit shipEvent(_productId);\n        }\n\n\n    }\n\n    function getPro(uint id, uint t ) private view returns (Product) {\n        if(t==0){\n            for (uint i=0; i<farmersPro.length;i++){\n                if(farmersPro[i].getIdProduct() == id){\n                    return farmersPro[i];\n                }\n            }\n        }\n\n        if(t==1){\n            for (uint i=0; i<suppliersPro.length;i++){\n                if(suppliersPro[i].getIdProduct() == id){\n                    return suppliersPro[i];\n                }\n            }\n        }\n    }\n\n\n    function getProductHistory (uint _productId ) public view returns (\n            uint,\n            uint,\n            uint,\n            string memory,\n            string memory,\n            string memory,\n            uint,\n            uint,\n            uint\n        ) {\n        require ((_productId >0) && (_productId <= products.length+1));\n\n        proHistory memory ph;\n        uint j=0;\n        for (uint i=0; i<products.length; i++){\n            if (products[i].getIdProduct()==_productId){\n                if (j==0){\n                    ph.pType = products[i].getType();\n                    ph.name= products[i].getName();\n                    ph.harDate= products[i].getHarDate();\n                    ph.shipAddrFarmer= products[i].getAddr();\n                    ph.quantity= products[i].getQuantity();\n                    uint a= products[i].getCreator();\n                    ph.addrFarmer= a;\n                    j ++;\n                    ph.creator= a;\n                } else if (j==1) {\n                    ph.addrSupplier= products[i].getAddrOwner();\n                    ph.shipAddrToSupp= products[i].getAddr();\n                    ph.shipDateToSupp= products [i].getShipDate();\n                    j ++;\n                } else if (j==2){\n                    ph.addrRetailer= products[i].getAddrOwner();\n                    ph.shipAddrToRetai= products[i].getAddr();\n                    ph.shipDateToRetai= products [i].getShipDate();\n                    j ++;\n                    break;\n                }\n\n            }\n        }\n        return (\n                ph.harDate,\n                ph.shipDateToSupp,\n                ph.shipDateToRetai,\n                ph.shipAddrFarmer,\n                ph.shipAddrToSupp,\n                ph.shipAddrToRetai,\n                ph.addrSupplier,\n                ph.addrRetailer,\n                ph.creator\n            );\n    }\n\n    function getProductCurrentState(uint _productId ) public view returns (uint,string memory,string memory,uint,uint,string memory,uint,uint,uint,uint,bool){\n        Product p ;\n        for (uint i=0; i<products.length; i++) {\n            if (products[i].getIdProduct() == _productId)\n                p = products[i];\n        }\n        return (p.getIdProduct(),p.getType(),p.getName(),p.getHarDate(),p.getShipDate(),p.getAddr(),p.getQuantity(),p.getAddrOwner(),p.getAddrPrvOwner(),p.getCreator(),p.getShipped());\n    }\n\n    event shipEvent (\n        uint indexed _productId\n    );\n\n\n    // function getFarmersNbr() public view returns (uint){\n    //     return farmers.length;\n    // }\n\n    // function getFarmerById(uint _idF) public view returns (uint ,string memory,string memory,string memory){\n    //     return (farmers[_idF-1].id ,farmers[_idF-1].activity ,farmers[_idF-1].username ,farmers[_idF-1].location );\n    // }\n\n    // function getSuppliersNbr() public view returns (uint){\n    //     return suppliers.length;\n    // }\n\n    // function getSupplierById(uint _idF) public view returns (uint ,string memory,string memory,string memory){\n    //     return (suppliers[_idF-1].id ,suppliers[_idF-1].activity,suppliers[_idF-1].companyname ,suppliers[_idF-1].location  );\n    // }\n\n    // function getRetailersNbr() public view returns (uint ){\n    //     return retailers.length;\n    // }\n\n    // function getRetailerById(uint _idF) public view returns (uint ,string memory,string memory,string memory){\n    //     return (retailers[_idF-1].id ,retailers[_idF-1].activity,retailers[_idF-1].companyname ,retailers[_idF-1].location  );\n    // }\n\n\n  function getProducsNbr() public view returns (uint){\n         return products.length;\n }\n\n\n    function getCompaniesNbr(uint _type) public view returns (uint ){\n        if (_type == 0){\n            return farmers.length;\n        }else if(_type == 1) {\n            return suppliers.length;\n        }else if(_type == 2) {\n            return retailers.length;\n        }\n    }\n\n    function getCompanyById(uint _idF , uint _type) public view returns (uint ,string memory,string memory,string memory){\n        if (_type == 0){\n            return (farmers[_idF-1].id ,farmers[_idF-1].activity,farmers[_idF-1].companyname ,farmers[_idF-1].location);\n        }else if (_type == 1){\n            return (suppliers[_idF-1].id ,suppliers[_idF-1].activity,suppliers[_idF-1].companyname ,suppliers[_idF-1].location);\n        }else if (_type == 2){\n            return (retailers[_idF-1].id ,retailers[_idF-1].activity,retailers[_idF-1].companyname ,retailers[_idF-1].location);\n        }\n    }\n}\n",
  "sourcePath": "/home/ahmed/Desktop/ethereuem_projects/project_final/backend_truffle/contracts/Food.sol",
  "compiler": {
    "name": "solc",
    "version": "0.5.0+commit.1d4f565a.Emscripten.clang"
  },
  "schemaVersion": "3.0.1",
  "updatedAt": "2019-03-04T14:33:15.613Z",
  "devdoc": {
    "methods": {}
  },
  "userdoc": {
    "methods": {}
  }
}