{
  "contractName": "Product",
  "abi": [
    {
      "constant": true,
      "inputs": [],
      "name": "creator",
      "outputs": [
        {
          "name": "",
          "type": "uint256"
        }
      ],
      "payable": false,
      "stateMutability": "view",
      "type": "function",
      "signature": "0x02d05d3f"
    },
    {
      "constant": true,
      "inputs": [],
      "name": "name",
      "outputs": [
        {
          "name": "",
          "type": "string"
        }
      ],
      "payable": false,
      "stateMutability": "view",
      "type": "function",
      "signature": "0x06fdde03"
    },
    {
      "constant": true,
      "inputs": [],
      "name": "quantity",
      "outputs": [
        {
          "name": "",
          "type": "uint256"
        }
      ],
      "payable": false,
      "stateMutability": "view",
      "type": "function",
      "signature": "0x17fc45e2"
    },
    {
      "constant": true,
      "inputs": [],
      "name": "pType",
      "outputs": [
        {
          "name": "",
          "type": "string"
        }
      ],
      "payable": false,
      "stateMutability": "view",
      "type": "function",
      "signature": "0x216b9116"
    },
    {
      "constant": true,
      "inputs": [],
      "name": "shipAddr",
      "outputs": [
        {
          "name": "",
          "type": "string"
        }
      ],
      "payable": false,
      "stateMutability": "view",
      "type": "function",
      "signature": "0x24cda886"
    },
    {
      "constant": true,
      "inputs": [],
      "name": "idProduct",
      "outputs": [
        {
          "name": "",
          "type": "uint256"
        }
      ],
      "payable": false,
      "stateMutability": "view",
      "type": "function",
      "signature": "0x4150419f"
    },
    {
      "constant": true,
      "inputs": [],
      "name": "shipDate",
      "outputs": [
        {
          "name": "",
          "type": "uint256"
        }
      ],
      "payable": false,
      "stateMutability": "view",
      "type": "function",
      "signature": "0x42170d77"
    },
    {
      "constant": true,
      "inputs": [],
      "name": "addrOwner",
      "outputs": [
        {
          "name": "",
          "type": "uint256"
        }
      ],
      "payable": false,
      "stateMutability": "view",
      "type": "function",
      "signature": "0x869984c8"
    },
    {
      "constant": true,
      "inputs": [],
      "name": "shipped",
      "outputs": [
        {
          "name": "",
          "type": "bool"
        }
      ],
      "payable": false,
      "stateMutability": "view",
      "type": "function",
      "signature": "0xba446ae9"
    },
    {
      "constant": true,
      "inputs": [],
      "name": "addrPrvOwner",
      "outputs": [
        {
          "name": "",
          "type": "uint256"
        }
      ],
      "payable": false,
      "stateMutability": "view",
      "type": "function",
      "signature": "0xd0e49651"
    },
    {
      "constant": true,
      "inputs": [],
      "name": "harDate",
      "outputs": [
        {
          "name": "",
          "type": "uint256"
        }
      ],
      "payable": false,
      "stateMutability": "view",
      "type": "function",
      "signature": "0xda5d268f"
    },
    {
      "inputs": [],
      "payable": true,
      "stateMutability": "payable",
      "type": "constructor",
      "signature": "constructor"
    },
    {
      "constant": false,
      "inputs": [
        {
          "name": "_d",
          "type": "uint256"
        }
      ],
      "name": "setShipDate",
      "outputs": [],
      "payable": false,
      "stateMutability": "nonpayable",
      "type": "function",
      "signature": "0xa50ec277"
    },
    {
      "constant": false,
      "inputs": [
        {
          "name": "_d",
          "type": "string"
        }
      ],
      "name": "setShipAddress",
      "outputs": [],
      "payable": false,
      "stateMutability": "nonpayable",
      "type": "function",
      "signature": "0x1ff72848"
    },
    {
      "constant": false,
      "inputs": [
        {
          "name": "_a",
          "type": "uint256"
        }
      ],
      "name": "setCreator",
      "outputs": [],
      "payable": false,
      "stateMutability": "nonpayable",
      "type": "function",
      "signature": "0x340c531c"
    },
    {
      "constant": false,
      "inputs": [
        {
          "name": "_a",
          "type": "bool"
        }
      ],
      "name": "setShipped",
      "outputs": [],
      "payable": false,
      "stateMutability": "nonpayable",
      "type": "function",
      "signature": "0xd86866e4"
    },
    {
      "constant": false,
      "inputs": [
        {
          "name": "_a",
          "type": "uint256"
        }
      ],
      "name": "setAddrPrvOwner",
      "outputs": [],
      "payable": false,
      "stateMutability": "nonpayable",
      "type": "function",
      "signature": "0xacdf904a"
    },
    {
      "constant": false,
      "inputs": [
        {
          "name": "_id",
          "type": "uint256"
        },
        {
          "name": "_pType",
          "type": "string"
        },
        {
          "name": "_name",
          "type": "string"
        },
        {
          "name": "_harDate",
          "type": "uint256"
        },
        {
          "name": "_shipAddr",
          "type": "string"
        },
        {
          "name": "_quantity",
          "type": "uint256"
        },
        {
          "name": "_owner",
          "type": "uint256"
        }
      ],
      "name": "setProductArguemtns",
      "outputs": [],
      "payable": false,
      "stateMutability": "nonpayable",
      "type": "function",
      "signature": "0xce3065d6"
    },
    {
      "constant": false,
      "inputs": [],
      "name": "setShippedProduct",
      "outputs": [],
      "payable": false,
      "stateMutability": "nonpayable",
      "type": "function",
      "signature": "0x571f13e4"
    },
    {
      "constant": true,
      "inputs": [],
      "name": "getAddrOwner",
      "outputs": [
        {
          "name": "",
          "type": "uint256"
        }
      ],
      "payable": false,
      "stateMutability": "view",
      "type": "function",
      "signature": "0x97175d02"
    },
    {
      "constant": true,
      "inputs": [],
      "name": "getAddrPrvOwner",
      "outputs": [
        {
          "name": "",
          "type": "uint256"
        }
      ],
      "payable": false,
      "stateMutability": "view",
      "type": "function",
      "signature": "0x0c2d46ea"
    },
    {
      "constant": true,
      "inputs": [],
      "name": "getType",
      "outputs": [
        {
          "name": "",
          "type": "string"
        }
      ],
      "payable": false,
      "stateMutability": "view",
      "type": "function",
      "signature": "0x15dae03e"
    },
    {
      "constant": true,
      "inputs": [],
      "name": "getName",
      "outputs": [
        {
          "name": "",
          "type": "string"
        }
      ],
      "payable": false,
      "stateMutability": "view",
      "type": "function",
      "signature": "0x17d7de7c"
    },
    {
      "constant": true,
      "inputs": [],
      "name": "getHarDate",
      "outputs": [
        {
          "name": "",
          "type": "uint256"
        }
      ],
      "payable": false,
      "stateMutability": "view",
      "type": "function",
      "signature": "0x320bafb2"
    },
    {
      "constant": true,
      "inputs": [],
      "name": "getQuantity",
      "outputs": [
        {
          "name": "",
          "type": "uint256"
        }
      ],
      "payable": false,
      "stateMutability": "view",
      "type": "function",
      "signature": "0x0115949c"
    },
    {
      "constant": true,
      "inputs": [],
      "name": "getCreator",
      "outputs": [
        {
          "name": "",
          "type": "uint256"
        }
      ],
      "payable": false,
      "stateMutability": "view",
      "type": "function",
      "signature": "0x0ee2cb10"
    },
    {
      "constant": true,
      "inputs": [],
      "name": "getAddr",
      "outputs": [
        {
          "name": "",
          "type": "string"
        }
      ],
      "payable": false,
      "stateMutability": "view",
      "type": "function",
      "signature": "0xa74c2bb6"
    },
    {
      "constant": true,
      "inputs": [],
      "name": "getShipped",
      "outputs": [
        {
          "name": "",
          "type": "bool"
        }
      ],
      "payable": false,
      "stateMutability": "view",
      "type": "function",
      "signature": "0xb9cd862a"
    },
    {
      "constant": true,
      "inputs": [],
      "name": "getIdProduct",
      "outputs": [
        {
          "name": "",
          "type": "uint256"
        }
      ],
      "payable": false,
      "stateMutability": "view",
      "type": "function",
      "signature": "0x019a91cb"
    },
    {
      "constant": true,
      "inputs": [],
      "name": "getShipDate",
      "outputs": [
        {
          "name": "",
          "type": "uint256"
        }
      ],
      "payable": false,
      "stateMutability": "view",
      "type": "function",
      "signature": "0x36091bab"
    }
  ],
  "bytecode": "0x60806040526111a5806100136000396000f3fe608060405260043610610175576000357c0100000000000000000000000000000000000000000000000000000000900463ffffffff1680630115949c1461017a578063019a91cb146101a557806302d05d3f146101d057806306fdde03146101fb5780630c2d46ea1461028b5780630ee2cb10146102b657806315dae03e146102e157806317d7de7c1461037157806317fc45e2146104015780631ff728481461042c578063216b9116146104f457806324cda88614610584578063320bafb214610614578063340c531c1461063f57806336091bab1461067a5780634150419f146106a557806342170d77146106d0578063571f13e4146106fb578063869984c81461071257806397175d021461073d578063a50ec27714610768578063a74c2bb6146107a3578063acdf904a14610833578063b9cd862a1461086e578063ba446ae91461089d578063ce3065d6146108cc578063d0e4965114610aea578063d86866e414610b15578063da5d268f14610b52575b600080fd5b34801561018657600080fd5b5061018f610b7d565b6040518082815260200191505060405180910390f35b3480156101b157600080fd5b506101ba610b87565b6040518082815260200191505060405180910390f35b3480156101dc57600080fd5b506101e5610b90565b6040518082815260200191505060405180910390f35b34801561020757600080fd5b50610210610b96565b6040518080602001828103825283818151815260200191508051906020019080838360005b83811015610250578082015181840152602081019050610235565b50505050905090810190601f16801561027d5780820380516001836020036101000a031916815260200191505b509250505060405180910390f35b34801561029757600080fd5b506102a0610c34565b6040518082815260200191505060405180910390f35b3480156102c257600080fd5b506102cb610c3e565b6040518082815260200191505060405180910390f35b3480156102ed57600080fd5b506102f6610c48565b6040518080602001828103825283818151815260200191508051906020019080838360005b8381101561033657808201518184015260208101905061031b565b50505050905090810190601f1680156103635780820380516001836020036101000a031916815260200191505b509250505060405180910390f35b34801561037d57600080fd5b50610386610cea565b6040518080602001828103825283818151815260200191508051906020019080838360005b838110156103c65780820151818401526020810190506103ab565b50505050905090810190601f1680156103f35780820380516001836020036101000a031916815260200191505b509250505060405180910390f35b34801561040d57600080fd5b50610416610d8c565b6040518082815260200191505060405180910390f35b34801561043857600080fd5b506104f26004803603602081101561044f57600080fd5b810190808035906020019064010000000081111561046c57600080fd5b82018360208201111561047e57600080fd5b803590602001918460018302840111640100000000831117156104a057600080fd5b91908080601f016020809104026020016040519081016040528093929190818152602001838380828437600081840152601f19601f820116905080830192505050505050509192919290505050610d92565b005b34801561050057600080fd5b50610509610dac565b6040518080602001828103825283818151815260200191508051906020019080838360005b8381101561054957808201518184015260208101905061052e565b50505050905090810190601f1680156105765780820380516001836020036101000a031916815260200191505b509250505060405180910390f35b34801561059057600080fd5b50610599610e4a565b6040518080602001828103825283818151815260200191508051906020019080838360005b838110156105d95780820151818401526020810190506105be565b50505050905090810190601f1680156106065780820380516001836020036101000a031916815260200191505b509250505060405180910390f35b34801561062057600080fd5b50610629610ee8565b6040518082815260200191505060405180910390f35b34801561064b57600080fd5b506106786004803603602081101561066257600080fd5b8101908080359060200190929190505050610ef2565b005b34801561068657600080fd5b5061068f610efc565b6040518082815260200191505060405180910390f35b3480156106b157600080fd5b506106ba610f06565b6040518082815260200191505060405180910390f35b3480156106dc57600080fd5b506106e5610f0c565b6040518082815260200191505060405180910390f35b34801561070757600080fd5b50610710610f12565b005b34801561071e57600080fd5b50610727610f2f565b6040518082815260200191505060405180910390f35b34801561074957600080fd5b50610752610f35565b6040518082815260200191505060405180910390f35b34801561077457600080fd5b506107a16004803603602081101561078b57600080fd5b8101908080359060200190929190505050610f3f565b005b3480156107af57600080fd5b506107b8610f49565b6040518080602001828103825283818151815260200191508051906020019080838360005b838110156107f85780820151818401526020810190506107dd565b50505050905090810190601f1680156108255780820380516001836020036101000a031916815260200191505b509250505060405180910390f35b34801561083f57600080fd5b5061086c6004803603602081101561085657600080fd5b8101908080359060200190929190505050610feb565b005b34801561087a57600080fd5b50610883610ff5565b604051808215151515815260200191505060405180910390f35b3480156108a957600080fd5b506108b261100c565b604051808215151515815260200191505060405180910390f35b3480156108d857600080fd5b50610ae8600480360360e08110156108ef57600080fd5b81019080803590602001909291908035906020019064010000000081111561091657600080fd5b82018360208201111561092857600080fd5b8035906020019184600183028401116401000000008311171561094a57600080fd5b91908080601f016020809104026020016040519081016040528093929190818152602001838380828437600081840152601f19601f820116905080830192505050505050509192919290803590602001906401000000008111156109ad57600080fd5b8201836020820111156109bf57600080fd5b803590602001918460018302840111640100000000831117156109e157600080fd5b91908080601f016020809104026020016040519081016040528093929190818152602001838380828437600081840152601f19601f8201169050808301925050505050505091929192908035906020019092919080359060200190640100000000811115610a4e57600080fd5b820183602082011115610a6057600080fd5b80359060200191846001830284011164010000000083111715610a8257600080fd5b91908080601f016020809104026020016040519081016040528093929190818152602001838380828437600081840152601f19601f820116905080830192505050505050509192919290803590602001909291908035906020019092919050505061101f565b005b348015610af657600080fd5b50610aff6110ab565b6040518082815260200191505060405180910390f35b348015610b2157600080fd5b50610b5060048036036020811015610b3857600080fd5b810190808035151590602001909291905050506110b1565b005b348015610b5e57600080fd5b50610b676110ce565b6040518082815260200191505060405180910390f35b6000600654905090565b60008054905090565b60095481565b60028054600181600116156101000203166002900480601f016020809104026020016040519081016040528092919081815260200182805460018160011615610100020316600290048015610c2c5780601f10610c0157610100808354040283529160200191610c2c565b820191906000526020600020905b815481529060010190602001808311610c0f57829003601f168201915b505050505081565b6000600854905090565b6000600954905090565b606060018054600181600116156101000203166002900480601f016020809104026020016040519081016040528092919081815260200182805460018160011615610100020316600290048015610ce05780601f10610cb557610100808354040283529160200191610ce0565b820191906000526020600020905b815481529060010190602001808311610cc357829003601f168201915b5050505050905090565b606060028054600181600116156101000203166002900480601f016020809104026020016040519081016040528092919081815260200182805460018160011615610100020316600290048015610d825780601f10610d5757610100808354040283529160200191610d82565b820191906000526020600020905b815481529060010190602001808311610d6557829003601f168201915b5050505050905090565b60065481565b8060059080519060200190610da89291906110d4565b5050565b60018054600181600116156101000203166002900480601f016020809104026020016040519081016040528092919081815260200182805460018160011615610100020316600290048015610e425780601f10610e1757610100808354040283529160200191610e42565b820191906000526020600020905b815481529060010190602001808311610e2557829003601f168201915b505050505081565b60058054600181600116156101000203166002900480601f016020809104026020016040519081016040528092919081815260200182805460018160011615610100020316600290048015610ee05780601f10610eb557610100808354040283529160200191610ee0565b820191906000526020600020905b815481529060010190602001808311610ec357829003601f168201915b505050505081565b6000600354905090565b8060098190555050565b6000600454905090565b60005481565b60045481565b6001600a60006101000a81548160ff021916908315150217905550565b60075481565b6000600754905090565b8060048190555050565b606060058054600181600116156101000203166002900480601f016020809104026020016040519081016040528092919081815260200182805460018160011615610100020316600290048015610fe15780601f10610fb657610100808354040283529160200191610fe1565b820191906000526020600020905b815481529060010190602001808311610fc457829003601f168201915b5050505050905090565b8060088190555050565b6000600a60009054906101000a900460ff16905090565b600a60009054906101000a900460ff1681565b86600081905550856001908051906020019061103c9291906110d4565b5083600381905550806007819055508160068190555080600981905550846002908051906020019061106f9291906110d4565b5082600590805190602001906110869291906110d4565b506000600a60006101000a81548160ff02191690831515021790555050505050505050565b60085481565b80600a60006101000a81548160ff02191690831515021790555050565b60035481565b828054600181600116156101000203166002900490600052602060002090601f016020900481019282601f1061111557805160ff1916838001178555611143565b82800160010185558215611143579182015b82811115611142578251825591602001919060010190611127565b5b5090506111509190611154565b5090565b61117691905b8082111561117257600081600090555060010161115a565b5090565b9056fea165627a7a72305820ad4a462c607ae090a6f446765ebcf695f2968969e99380cf363823916bff84640029",
  "source": "pragma solidity >=0.4.25 <0.6.0;\r\n\r\n\r\ncontract Product {\r\n\r\n    uint public idProduct;\r\n    string public pType;\r\n    string public name;\r\n    uint public harDate;\r\n    uint public shipDate;\r\n    string public shipAddr;\r\n    uint public quantity;       \r\n    uint public addrOwner;\r\n    uint public addrPrvOwner;\r\n    uint public creator;\r\n    bool public shipped;\r\n\r\n    // function checkIfOwner(uint _a) public returns (bool) {\r\n    //     return(addrOwner == _a);\r\n    // }\r\n\r\n    function setShipDate(uint _d) public {\r\n        shipDate = _d;\r\n    }\r\n\r\n    function setShipAddress(string memory _d) public {\r\n        shipAddr = _d;\r\n    }\r\n\r\n    function setCreator (uint _a) public {\r\n        creator = _a;\r\n    }\r\n\r\n    function setShipped (bool _a) public {\r\n        shipped = _a;\r\n    }\r\n\r\n    function setAddrPrvOwner (uint _a) public {\r\n        addrPrvOwner = _a;\r\n    }\r\n    constructor () public payable{\r\n\r\n    }\r\n    // This is the constructor which registers the\r\n    // creator and the assigned name.\r\n    function setProductArguemtns (uint _id,string memory _pType,string memory _name,uint _harDate,string memory _shipAddr,uint _quantity,uint _owner) public {\r\n        idProduct = _id;\r\n        pType = _pType;\r\n        harDate = _harDate;\r\n        addrOwner = _owner;\r\n        quantity = _quantity;\r\n        creator = _owner;\r\n        name = _name;\r\n        shipAddr = _shipAddr;\r\n        shipped = false;\r\n    }\r\n\r\n    // function Transfer(uint _owner,uint _newOwner) public {\r\n    //     // Only the current owner can transfer the token.\r\n    //     if ((_newOwner == addrOwner) && (!checkIfOwner(_owner)) )\r\n    //     return;\r\n    //     addrOwner = _newOwner;\r\n    //     addrPrvOwner = _owner;\r\n    // }\r\n\r\n    function setShippedProduct () public {\r\n        shipped = true;\r\n    }\r\n    \r\n    function getAddrOwner() public view returns (uint) {\r\n        return addrOwner;\r\n    }\r\n    \r\n    function getAddrPrvOwner() public view returns (uint) {\r\n        return addrPrvOwner;\r\n    }\r\n    \r\n    function getType() public view  returns (string memory) {\r\n        return pType;\r\n    }\r\n    \r\n    function getName() public view  returns (string memory) {\r\n        return name;\r\n    }\r\n    \r\n    function getHarDate() public view  returns (uint) {\r\n        return harDate;\r\n    }\r\n    \r\n    function getQuantity() public view  returns (uint) {\r\n        return quantity;\r\n    }\r\n    \r\n    function getCreator() public view  returns (uint) {\r\n        return creator;\r\n    }\r\n    \r\n    function getAddr() public  view returns (string memory) {\r\n        return shipAddr;\r\n    }\r\n    \r\n    function getShipped() public  view returns (bool) {\r\n        return shipped;\r\n    }\r\n    \r\n    function getIdProduct() public view  returns (uint) {\r\n        return idProduct;\r\n    }\r\n    \r\n    function getShipDate() public  view returns (uint) {\r\n        return shipDate;\r\n    }\r\n    \r\n    \r\n}\r\n",
  "sourcePath": "E:\\Documents\\implementation ehereum\\Backend-truffle\\contracts\\Product.sol",
  "compiler": {
    "name": "solc",
    "version": "0.5.0+commit.1d4f565a.Emscripten.clang"
  },
  "schemaVersion": "3.0.2",
  "updatedAt": "2019-03-05T16:36:15.521Z",
  "devdoc": {
    "methods": {}
  },
  "userdoc": {
    "methods": {}
  }
}