{
  "contractName": "UserContract",
  "abi": [
    {
      "constant": true,
      "inputs": [
        {
          "name": "",
          "type": "uint256"
        }
      ],
      "name": "products",
      "outputs": [
        {
          "name": "",
          "type": "address"
        }
      ],
      "payable": false,
      "stateMutability": "view",
      "type": "function",
      "signature": "0x7acc0b20"
    },
    {
      "constant": true,
      "inputs": [],
      "name": "id",
      "outputs": [
        {
          "name": "",
          "type": "uint256"
        }
      ],
      "payable": false,
      "stateMutability": "view",
      "type": "function",
      "signature": "0xaf640d0f"
    },
    {
      "inputs": [],
      "payable": true,
      "stateMutability": "payable",
      "type": "constructor",
      "signature": "constructor"
    },
    {
      "constant": false,
      "inputs": [
        {
          "name": "_id",
          "type": "uint256"
        }
      ],
      "name": "setUserArguments",
      "outputs": [],
      "payable": false,
      "stateMutability": "nonpayable",
      "type": "function",
      "signature": "0x07baf518"
    },
    {
      "constant": false,
      "inputs": [
        {
          "name": "_a",
          "type": "uint256"
        }
      ],
      "name": "getProduct",
      "outputs": [
        {
          "name": "",
          "type": "address"
        }
      ],
      "payable": false,
      "stateMutability": "nonpayable",
      "type": "function",
      "signature": "0xb9db15b4"
    },
    {
      "constant": false,
      "inputs": [
        {
          "name": "_a",
          "type": "uint256"
        },
        {
          "name": "_p",
          "type": "address"
        }
      ],
      "name": "setProduct",
      "outputs": [],
      "payable": false,
      "stateMutability": "nonpayable",
      "type": "function",
      "signature": "0xc93046ec"
    },
    {
      "constant": false,
      "inputs": [
        {
          "name": "_a",
          "type": "uint256"
        }
      ],
      "name": "setShipped",
      "outputs": [],
      "payable": false,
      "stateMutability": "nonpayable",
      "type": "function",
      "signature": "0xe5452fc4"
    },
    {
      "constant": true,
      "inputs": [
        {
          "name": "currentOwner",
          "type": "uint256"
        },
        {
          "name": "newOwner",
          "type": "uint256"
        }
      ],
      "name": "isTokenTransferOK",
      "outputs": [
        {
          "name": "ok",
          "type": "bool"
        }
      ],
      "payable": false,
      "stateMutability": "view",
      "type": "function",
      "signature": "0xa48ba6a3"
    }
  ],
  "bytecode": "0x608060405261049d806100136000396000f3fe608060405260043610610083576000357c0100000000000000000000000000000000000000000000000000000000900463ffffffff16806307baf518146100885780637acc0b20146100c3578063a48ba6a31461013e578063af640d0f1461019b578063b9db15b4146101c6578063c93046ec14610241578063e5452fc41461029c575b600080fd5b34801561009457600080fd5b506100c1600480360360208110156100ab57600080fd5b81019080803590602001909291905050506102d7565b005b3480156100cf57600080fd5b506100fc600480360360208110156100e657600080fd5b81019080803590602001909291905050506102e1565b604051808273ffffffffffffffffffffffffffffffffffffffff1673ffffffffffffffffffffffffffffffffffffffff16815260200191505060405180910390f35b34801561014a57600080fd5b506101816004803603604081101561016157600080fd5b810190808035906020019092919080359060200190929190505050610314565b604051808215151515815260200191505060405180910390f35b3480156101a757600080fd5b506101b0610326565b6040518082815260200191505060405180910390f35b3480156101d257600080fd5b506101ff600480360360208110156101e957600080fd5b810190808035906020019092919050505061032c565b604051808273ffffffffffffffffffffffffffffffffffffffff1673ffffffffffffffffffffffffffffffffffffffff16815260200191505060405180910390f35b34801561024d57600080fd5b5061029a6004803603604081101561026457600080fd5b8101908080359060200190929190803573ffffffffffffffffffffffffffffffffffffffff169060200190929190505050610369565b005b3480156102a857600080fd5b506102d5600480360360208110156102bf57600080fd5b81019080803590602001909291905050506103bf565b005b8060008190555050565b60016020528060005260406000206000915054906101000a900473ffffffffffffffffffffffffffffffffffffffff1681565b60008083905080831491505092915050565b60005481565b60006001600083815260200190815260200160002060009054906101000a900473ffffffffffffffffffffffffffffffffffffffff169050919050565b806001600084815260200190815260200160002060006101000a81548173ffffffffffffffffffffffffffffffffffffffff021916908373ffffffffffffffffffffffffffffffffffffffff1602179055505050565b6001600082815260200190815260200160002060009054906101000a900473ffffffffffffffffffffffffffffffffffffffff1673ffffffffffffffffffffffffffffffffffffffff1663571f13e46040518163ffffffff167c0100000000000000000000000000000000000000000000000000000000028152600401600060405180830381600087803b15801561045657600080fd5b505af115801561046a573d6000803e3d6000fd5b505050505056fea165627a7a723058209692e22b4b2a9efdecec5c6e8130f52c7813a5f102be4a51449915dd6a3162de0029",
  "source": "pragma solidity >=0.4.25 <0.6.0;\n\nimport \"./Product.sol\";\n\ncontract UserContract {\n\n    uint public id;\n    \n\n    mapping (uint=>Product) public products ;\n\n    constructor () public payable {\n\n    }\n\n    function setUserArguments (uint _id) public {\n        id = _id;\n    }\n\n    function getProduct (uint _a) public returns (Product) {\n        return products[_a];\n    }\n\n    function setProduct (uint _a,Product _p) public {\n        // p.setProductArguemtns(_p.getIdProduct(),_p.getType(),_p.getName(),_p.getHarDate(),_p.getAddr(),_p.getQuantity(),_p.getAddrOwner());\n        // p.setShipped(_p.getShipped());\n        // p.setShipDate (_p.getShipDate());\n        // p.setAddrPrvOwner(_p.getAddrPrvOwner());\n        \n        products[_a] = _p;\n    }\n\n    function setShipped (uint _a) public {\n        products[_a].setShippedProduct();\n    }\n\n    function isTokenTransferOK(uint currentOwner, uint newOwner)\n        public\n        view\n        returns (bool ok)\n    {\n        // Check some arbitrary condition.\n        uint tokenAddress = currentOwner;\n        return (newOwner) == (tokenAddress);\n    }\n\n\n}\n",
  "sourcePath": "/home/ahmed/Desktop/ethereuem_projects/project_final/backend_truffle/contracts/UserContract.sol",
  "compiler": {
    "name": "solc",
    "version": "0.5.0+commit.1d4f565a.Emscripten.clang"
  },
  "schemaVersion": "3.0.1",
  "updatedAt": "2019-03-04T14:33:16.119Z",
  "devdoc": {
    "methods": {}
  },
  "userdoc": {
    "methods": {}
  }
}